:020000040800F2
:10000000600600206D0100087501000877010008F6
:10001000790100087B0100087D0100080000000054
:100020000000000000000000000000007F01000848
:10003000810100080000000083010008850100081C
:100040008701000887010008870100088701000870
:100050008701000887010008870100088701000860
:100060008701000887010008870100088701000850
:100070008701000887010008870100088701000840
:100080008701000887010008870100088701000830
:100090008701000887010008870100088701000820
:1000A0008701000887010008870100088701000810
:1000B0008701000887010008870100088701000800
:1000C00087010008870100088701000887010008F0
:1000D00087010008870100088701000887010008E0
:1000E00087010008870100088701000800F002F876
:1000F00000F02CF80AA090E8000C82448344AAF196
:100100000107DA4501D100F021F8AFF2090EBAE893
:100110000F0013F0010F18BFFB1A43F0010318473B
:10012000E4060000F4060000002300240025002659
:10013000103A28BF78C1FBD8520728BF30C148BF4A
:100140000B6070471FB51FBD10B510BD00F031F832
:100150001146FFF7F7FF00F093FA00F04FF803B4F1
:10016000FFF7F2FF03BC00F057F800000948804792
:1001700009480047FEE7FEE7FEE7FEE7FEE7FEE789
:10018000FEE7FEE7FEE7FEE704480549054A064BA1
:100190007047000021060008ED0000086000002004
:1001A0006006002060020020600200207047704757
:1001B0007047754600F02CF8AE4605006946534678
:1001C00020F00700854618B020B5FFF7DDFFBDE839
:1001D00020404FF000064FF000074FF000084FF0AE
:1001E000000B21F00701AC46ACE8C009ACE8C0093F
:1001F000ACE8C009ACE8C0098D46704710B50446AC
:10020000AFF300802046BDE81040FFF7A8BF000014
:10021000004870470000002001491820ABBEFEE7EF
:1002200026000200704721B1826842F0010282601C
:1002300003E0826822F001028260704701460020DC
:100240008A6802F004020AB1012000E00020704731
:100250000146C86C80B270470246002013680B400C
:100260000BB1012000E000207047014600208A68A1
:1002700002F008020AB1012000E0002070470000EF
:1002800030B502460020002350680F4C20400D7905
:100290000C6844EA05242043506090680B4C2040D1
:1002A000D1E902542C434D7944EA4504204390603F
:1002B000D06A20F470000C7C641EE4B2234340EA50
:1002C0000350D06230BD0000FFFEF0FFFDF7F1FFEC
:1002D00010B5032301220021084800F011F8012184
:1002E000064800F06EF800BF02210448FFF7B4FF93
:1002F0000028F9D00148FFF7ABFF10BD00240140F2
:10030000F0B504460D4600200021092D11DDE068FE
:10031000A5F10A0606EB4607072606FA07F1884309
:10032000A5F10A0606EB460603FA06F10843E0606B
:100330000CE0206905EB4507072606FA07F188431C
:1003400005EB450603FA06F108432061072A0FDA98
:10035000606B561E06EB86071F2606FA07F18843D8
:10036000561E06EB860605FA06F10843606322E096
:100370000D2A0FDA206BD61F06EB86071F2606FA1A
:1003800007F18843D61F06EB860605FA06F10843F7
:10039000206310E0E06AA2F10D0606EB86071F2637
:1003A00006FA07F18843A2F10D0606EB860605FA68
:1003B00006F10843E062F0BD816841F00801816008
:1003C000704721B1826842F4A002826003E0826833
:1003D00022F4A00282607047816841F004018160CC
:1003E00070472DE9F0410246002500260020002339
:1003F0000024002791F803C00CF00F0591F803C00A
:100400000CF0100CBCF1000F03D091F802C04CEAC4
:10041000050591F800C0BCF1000F31D01468002030
:100420002BE04FF0010C0CFA00F3B1F800C00CEA1D
:1004300003069E4220D183004FF00F0C0CFA03F705
:10044000BC4305FA03FC4CEA040491F803C0BCF178
:10045000280F06D14FF0010C0CFA00FCC2F814C0B2
:100460000AE091F803C0BCF1480F05D14FF0010C30
:100470000CFA00FCC2F810C0401C0828D1D314604C
:10048000B1F800C0BCF1FF0F34DD546800202EE04D
:1004900000F1080C4FF0010808FA0CF3B1F800C0A5
:1004A0000CEA03069E4221D183004FF00F0C0CFA98
:1004B00003F7BC4305FA03FC4CEA040491F803C0BB
:1004C000BCF1280F05D100F1080C08FA0CF8C2F8AD
:1004D000148091F803C0BCF1480F07D100F1080C5B
:1004E0004FF0010808FA0CF8C2F81080401C0828E8
:1004F000CED35460BDE8F08141617047016170471F
:1005000001460020034A506820F4404008435060F0
:10051000704700000010024029B1064A9269024368
:10052000044B9A6104E0034A92698243014B9A6149
:10053000704700000010024010B500F001F810BD37
:100540000CB50020019000903348006840F48030E2
:100550003149086000BF3048006800F40030009066
:100560000198401C0190009818B90198B0F5A06F4F
:10057000F1D12948006800F4003010B1012000904A
:1005800001E0002000900098012843D12348006832
:1005900040F01000214908600846006820F0030080
:1005A00008600846006840F0020008601A48406889
:1005B000194948600846406848600846406840F469
:1005C000806048600846406820F47C104860084617
:1005D000406840F4E81048600846006840F08070C9
:1005E000086000BF0C48006800F000700028F9D0D7
:1005F0000948406820F00300074948600846406801
:1006000040F00200486000BF0348406800F00C0062
:100610000828F9D10CBD0000001002400020024063
:1006200010B51348006840F0010011490860084601
:100630004068104908400E494860084600680E4965
:1006400008400B4908600846006820F480200860D4
:100650000846406820F4FE0048604FF41F008860A0
:10066000FFF76AFF4FF000600449086010BD00000A
:10067000001002400000FFF8FFFFF6FE08ED00E06A
:1006800086B000244FF40040FFF73AFF01214802F2
:10069000FFF742FF01210820FFF73EFF10208DF8F1
:1006A00017004FF4F870ADF8140003208DF8160011
:1006B00005A95148FFF795FE00208DF8170001208D
:1006C000ADF8140005A94D48FFF78BFE00200090FF
:1006D0008DF804008DF805004FF460200290002092
:1006E000039001208DF8100069464548FFF7C8FDCA
:1006F00001214348FFF797FD4148FFF75DFE00BF2A
:100700003F48FFF7B2FD0028FAD13D48FFF764FEED
:1007100000BF3B48FFF792FD0028FAD16BE0FFF7DE
:10072000D7FD0446332C11DA20213348FFF7E4FECD
:1007300040213148FFF7E0FE80212F48FFF7DCFE23
:100740004FF480712C48FFF7D7FE54E0322C13DDB4
:10075000652C11DA20212848FFF7D0FE40212648D9
:10076000FFF7CAFE80212448FFF7C6FE4FF48071D0
:100770002148FFF7C1FE3EE0642C13DD972C11DA0F
:1007800020211D48FFF7B8FE40211B48FFF7B6FEA9
:1007900080211948FFF7B0FE4FF480711648FFF72B
:1007A000ABFE28E0962C13DDC92C11DA202112486B
:1007B000FFF7A2FE40211048FFF79EFE80210E4861
:1007C000FFF79CFE4FF480710B48FFF795FE12E097
:1007D000C82C10DD20210848FFF78EFE4021064876
:1007E000FFF78AFE80210448FFF786FE4FF48071F0
:1007F0000148FFF783FE92E7000C0140000801402A
:1008000000240140140800080000002060060000D9
:0408100028010008B3
:040000050800016D81
:00000001FF
